:020000040800F2
:1000000000800120E9170008D9150008E115000853
:10001000E9150008F1150008F915000800000000B6
:1000200000000000000000000000000001160008B1
:100030000F160008000000001D1600082B1600080F
:10004000391800083918000839180008391800084C
:10005000391800083918000839180008391800083C
:10006000391800083918000839180008391800082C
:10007000391800083918000839180008391800081C
:100080003918000839180008391800080000000065
:100090000000000000000000000000003918000807
:1000A00039180008391800083918000839180008EC
:1000B00039180008391800083918000839180008DC
:1000C00039180008391800083918000839180008CC
:1000D0003918000839180008391800080000000015
:1000E0003918000839180008391800080000000005
:1000F00000000000000000000000000039180008A7
:1001000000000000391800083918000839180008E4
:1001100000000000000000000000000000000000DF
:10012000391800083918000839180008391800086B
:100130003918000800000000000000000000000066
:100140000000000000000000000000003918000856
:10015000391800083918000839180008391800083B
:1001600039180008391800080000000000000000DD
:10017000000000000000000000000000000000007F
:100180000000000039180008000000000000000016
:040190003918000812
:1001A00010B5054C237833B9044B13B10448AFF3B1
:1001B00000800123237010BDD40100200000000046
:1001C0002C7F000808B5034B1BB103490348AFF36C
:1001D000008008BD00000000D80100202C7F00082E
:1001E00001F0FF01102A2BDB10F0070F08D010F8E8
:1001F000013B013A8B422DD010F0070F42B3F6D1EC
:10020000F0B441EA012141EA014122F007047FF004
:1002100000070023F0E80256083C85EA010586EA5B
:10022000010685FA47F5A3FA87F586FA47F6A5FA97
:1002300087F68EB9EED1F0BC01F0FF0102F00702A3
:1002400032B110F8013B013A83EA010313B1F8D14E
:100250000020704701387047002D06BF354603382F
:10026000073815F0010F07D1013015F4807F02BF68
:10027000013015F4C03F0130F0BC0138704700BFB9
:10028000034613F8012B002AFBD1181A01387047D6
:1002900081F0004102E000BF83F0004330B54FEA37
:1002A00041044FEA430594EA050F08BF90EA020FA4
:1002B0001FBF54EA000C55EA020C7FEA645C7FEA37
:1002C000655C00F0E2804FEA5454D4EB5555B8BF5A
:1002D0006D420CDD2C4480EA020281EA030382EACB
:1002E000000083EA010180EA020281EA0303362D5D
:1002F00088BF30BD11F0004F4FEA01314FF4801C30
:100300004CEA113102D0404261EB410113F0004F41
:100310004FEA03334CEA133302D0524263EB4303F8
:1003200094EA050F00F0A780A4F10104D5F1200E96
:100330000DDB02FA0EFC22FA05F2801841F10001F1
:1003400003FA0EF2801843FA05F359410EE0A5F1C5
:1003500020050EF1200E012A03FA0EFC28BF4CF0F6
:10036000020C43FA05F3C01851EBE37101F00045AC
:1003700007D54FF0000EDCF1000C7EEB00006EEBB9
:100380000101B1F5801F1BD3B1F5001F0CD3490843
:100390005FEA30004FEA3C0C04F101044FEA44529A
:1003A00012F5800F80F09A80BCF1004F08BF5FEA21
:1003B000500C50F1000041EB045141EA050130BD01
:1003C0005FEA4C0C404141EB0101013C28BFB1F513
:1003D000801FE9D291F0000F04BF01460020B1FA5E
:1003E00081F308BF2033A3F10B03B3F120020CDA31
:1003F0000C3208DD02F1140CC2F10C0201FA0CF00F
:1004000021FA02F10CE002F11402D8BFC2F1200C73
:1004100001FA02F120FA0CFCDCBF41EA0C01904029
:10042000E41AA2BF01EB0451294330BD6FEA040472
:100430001F3C1CDA0C340EDC04F11404C4F120025D
:1004400020FA04F001FA02F340EA030021FA04F36F
:1004500045EA030130BDC4F10C04C4F1200220FAC6
:1004600002F001FA04F340EA0300294630BD21FA04
:1004700004F0294630BD94F0000F83F4801306BFCA
:1004800081F480110134013D4EE77FEA645C18BFBE
:100490007FEA655C29D094EA050F08BF90EA020F55
:1004A00005D054EA000C04BF1946104630BD91EA4D
:1004B000030F1EBF0021002030BD5FEA545C05D150
:1004C0004000494128BF41F0004130BD14F580048F
:1004D0003CBF01F5801130BD01F0004545F0FE4103
:1004E00041F470014FF0000030BD7FEA645C1ABF38
:1004F000194610467FEA655C1CBF0B46024650EA6F
:10050000013406BF52EA033591EA030F41F400219A
:1005100030BD00BF90F0000F04BF0021704730B520
:100520004FF4806404F132044FF000054FF00001F5
:1005300050E700BF90F0000F04BF0021704730B5B6
:100540004FF4806404F1320410F0004548BF40428B
:100550004FF000013EE700BF42004FEAE2014FEAE0
:1005600031014FEA02701FBF12F07F4393F07F4FBB
:1005700081F06051704732F07F4208BF704793F0BE
:100580007F4F04BF41F40021704730B54FF46074D1
:1005900001F0004521F000411CE700BF50EA0102D4
:1005A00008BF704730B54FF000050AE050EA01027D
:1005B00008BF704730B511F0004502D5404261EBED
:1005C00041014FF4806404F132045FEA915C3FF42E
:1005D000D8AE4FF003025FEADC0C18BF03325FEACB
:1005E000DC0C18BF033202EBDC02C2F1200300FA7C
:1005F00003FC20FA02F001FA03FE40EA0E0021FAA1
:1006000002F11444BDE600BF70B54FF0FF0C4CF48E
:10061000E06C1CEA11541DBF1CEA135594EA0C0F40
:1006200095EA0C0F00F0DEF82C4481EA030621EA7B
:100630004C5123EA4C5350EA013518BF52EA0335B6
:1006400041F4801143F4801338D0A0FB02CE4FF068
:100650000005E1FB02E506F00042E0FB03E54FF098
:100660000006E1FB03569CF0000F18BF4EF0010E90
:10067000A4F1FF04B6F5007F64F5407404D25FEA8C
:100680004E0E6D4146EB060642EAC62141EA55513F
:100690004FEAC52040EA5E504FEACE2EB4F1FD0C81
:1006A00088BFBCF5E06F1ED8BEF1004F08BF5FEAFF
:1006B000500E50F1000041EB045170BD06F00046B1
:1006C00046EA010140EA020081EA0301B4EB5C045E
:1006D000C2BFD4EB0C0541EA045170BD41F4801156
:1006E0004FF0000E013C00F3AB8014F1360FDEBF7B
:1006F000002001F0004170BDC4F10004203C35DA57
:100700000C341BDC04F11404C4F1200500FA05F3D9
:1007100020FA04F001FA05F240EA020001F000427A
:1007200021F0004110EBD37021FA04F642EB0601F0
:100730005EEA430E08BF20EAD37070BDC4F10C041A
:10074000C4F1200500FA04F320FA05F001FA04F2DE
:1007500040EA020001F0004110EBD37041F10001CA
:100760005EEA430E08BF20EAD37070BDC4F12005D5
:1007700000FA05F24EEA020E20FA04F301FA05F23D
:1007800043EA020321FA04F001F0004121FA04F2E5
:1007900020EA020000EBD3705EEA430E08BF20EAB5
:1007A000D37070BD94F0000F0FD101F000464000EF
:1007B00041EB010111F4801F08BF013CF7D041EA71
:1007C000060195F0000F18BF704703F00046520075
:1007D00043EB030313F4801F08BF013DF7D043EA46
:1007E0000603704794EA0C0F0CEA135518BF95EAFC
:1007F0000C0F0CD050EA410618BF52EA4306D1D183
:1008000081EA030101F000414FF0000070BD50EAA1
:10081000410606BF1046194652EA430619D094EA2B
:100820000C0F02D150EA013613D195EA0C0F05D115
:1008300052EA03361CBF104619460AD181EA030169
:1008400001F0004141F0FE4141F470014FF0000021
:1008500070BD41F0FE4141F4780170BD70B54FF0BC
:10086000FF0C4CF4E06C1CEA11541DBF1CEA13553C
:1008700094EA0C0F95EA0C0F00F0A7F8A4EB05041E
:1008800081EA030E52EA03354FEA013100F0888015
:100890004FEA03334FF0805545EA131343EA1263DE
:1008A0004FEA022245EA111545EA10654FEA002693
:1008B0000EF000419D4208BF964244F1FD0404F54C
:1008C000407402D25B084FEA3202B61A65EB0305A8
:1008D0005B084FEA32024FF480104FF4002CB6EB65
:1008E000020E75EB030E22BFB61A754640EA0C00E5
:1008F0005B084FEA3202B6EB020E75EB030E22BF25
:10090000B61A754640EA5C005B084FEA3202B6EB65
:10091000020E75EB030E22BFB61A754640EA9C0024
:100920005B084FEA3202B6EB020E75EB030E22BFF4
:10093000B61A754640EADC0055EA060E18D04FEAB2
:10094000051545EA16754FEA06164FEAC30343EA52
:1009500052734FEAC2025FEA1C1CC0D111F4801F1F
:100960000BD141EA00014FF000004FF0004CB6E718
:1009700011F4801F04BF01430020B4F1FD0C88BFB7
:10098000BCF5E06F3FF6AFAEB5EB030C04BFB6EBC2
:10099000020C5FEA500C50F1000041EB045170BDB5
:1009A0000EF0004E4EEA113114EB5C04C2BFD4EBE2
:1009B0000C0541EA045170BD41F480114FF0000E66
:1009C000013C90E645EA060E8DE60CEA135594EAE2
:1009D0000C0F08BF95EA0C0F3FF43BAF94EA0C0FE5
:1009E0000AD150EA01347FF434AF95EA0C0F7FF45A
:1009F00025AF104619462CE795EA0C0F06D152EAAE
:100A000003353FF4FDAE1046194622E750EA410691
:100A100018BF52EA43067FF4C5AE50EA41047FF4A2
:100A20000DAF52EA43057FF4EBAE12E74FF0FF3C07
:100A300006E000BF4FF0010C02E000BF4FF0010CD8
:100A40004DF804CD4FEA410C7FEA6C5C4FEA430C51
:100A500018BF7FEA6C5C1BD001B050EA410C0CBFA0
:100A600052EA430C91EA030F02BF90EA020F002002
:100A7000704710F1000F91EA030F58BF994208BF69
:100A800090422CBFD8176FEAE37040F00100704726
:100A90004FEA410C7FEA6C5C02D150EA013C07D17D
:100AA0004FEA430C7FEA6C5CD6D152EA033CD3D0C8
:100AB0005DF8040B704700BF8446104662468C46C2
:100AC0001946634600E000BF01B5FFF7B7FF0028F5
:100AD00048BF10F1000F01BD4DF808EDFFF7F4FF1E
:100AE0000CBF012000205DF808FB00BF4DF808EDA9
:100AF000FFF7EAFF34BF012000205DF808FB00BFCC
:100B00004DF808EDFFF7E0FF94BF012000205DF8ED
:100B100008FB00BF4DF808EDFFF7CEFF94BF0120A2
:100B200000205DF808FB00BF4DF808EDFFF7C4FF9B
:100B300034BF012000205DF808FB00BF4FEA410CE4
:100B40007FEA6C5C02D150EA013C0AD14FEA430CC7
:100B50007FEA6C5C02D152EA033C02D14FF0000004
:100B600070474FF0010070474FEA410212F5001242
:100B700015D211D56FF47873B3EB625212D94FEAE4
:100B8000C12343F0004343EA505311F0004F23FACE
:100B900002F018BF404270474FF00000704750EA23
:100BA000013005D111F0004008BF6FF000407047E0
:100BB0004FF00000704700BF4A0011D212F500123A
:100BC00011D20DD56FF47873B3EB62520ED44FEAA5
:100BD000C12343F0004343EA505323FA02F0704725
:100BE0004FF00000704750EA013002D14FF0FF3063
:100BF00070474FF0000070474FEA4102B2F1E04306
:100C000024BFB3F5001CDCF1FE5C0DD901F0004CF3
:100C10004FEAC0024CEA5070B2F1004F40EB830043
:100C200008BF20F00100704711F0804F21D113F16F
:100C30003872BCBF01F00040704741F480114FEAA8
:100C40005252C2F11802C2F1200C10FA0CF320FA31
:100C500002F018BF40F001004FEAC1234FEAD3234E
:100C600003FA0CFC40EA0C0023FA02F34FEA4303B8
:100C7000CCE77FEA625307D150EA01331EBF4FF041
:100C8000FE4040F44000704701F0004040F0FE405C
:100C900040F40000704700BF53B94AB9002908BFAB
:100CA00000281CBF4FF0FF314FF0FF3000F0BEB9FD
:100CB000ADF1080C6DE904CE00F03CF8DDF804E07D
:100CC000DDE9022304B0704738B500220023044652
:100CD0000D46FFF70BFF28B920462946BDE83840EE
:100CE00000F00AB8204605F1004100F005F8404246
:100CF00061EB410138BD00BFD0B50C4B0022064668
:100D00000F46FFF781FCFFF757FF0446FFF702FC91
:100D1000074B0022FFF778FC02460B463046394667
:100D2000FFF7BAFAFFF748FF2146D0BD0000F03DBB
:100D30000000F0412DE9F047089D8E4604468846A4
:100D4000002B4AD18A42174662D9B2FA82F64EB1D6
:100D5000C6F1200301FA06F820FA03F3B74043EA8C
:100D60000808B4404FEA174E1FFA87FCB8FBFEF1A3
:100D7000230C0EFB118843EA084301FB0CF29A4254
:100D800009D9FB1801F1FF3080F0EA809A4240F265
:100D9000E78002393B449A1AA3B2B2FBFEF00EFB85
:100DA000102243EA024300FB0CFC9C4509D9FB18C6
:100DB00000F1FF3280F0D6809C4540F2D3803B4466
:100DC000023840EA0140A3EB0C0300211DB1F340BF
:100DD0000022C5E90032BDE8F0878B4205D90DB18C
:100DE000C5E9000100210846F5E7B3FA83F10029BF
:100DF00046D1734502D3824200F20581841A6EEB1C
:100E0000030201209046002DE5D0C5E90048E2E745
:100E1000002A00F09080B2FA82F6002E40F0A48002
:100E20008A1A030C4FEA174E80B2BCB20121B2FB02
:100E3000FEFC0EFB1C2243EA024304FB0CF29A4226
:100E400007D9FB180CF1FF3802D29A4200F2E08079
:100E5000C4469B1AB3FBFEF20EFB123340EA034377
:100E600002FB04F49C4207D9FB1802F1FF3002D2C6
:100E70009C4200F2CA8002461B1B42EA0C40A5E7D6
:100E8000C1F120068B4022FA06F71F430EFA01F447
:100E900020FA06F32EFA06FE4FEA1749234300FA1A
:100EA00001F81FFA87FCBEFBF9F01C0C09FB10EEE1
:100EB00044EA0E4400FB0CFEA64502FA01F209D9F1
:100EC0003C1900F1FF3A80F09C80A64540F29980E1
:100ED00002383C44A4EB0E041FFA83FEB4FBF9F382
:100EE00009FB13444EEA044403FB0CFCA44508D957
:100EF0003C1903F1FF3E80F08280A4457FD9023B7C
:100F00003C4443EA0040A4EB0C04A0FB02EC644523
:100F10007346E14662D35FD05DB1B8EB030264EB88
:100F2000090404FA06F622FA01F31E43CC40C5E98F
:100F3000006400214FE7B1FBF2FC010C41EA0E41D5
:100F400080B240EA01423B4638463C46B846BE467F
:100F50002026B1FBF7F1A2EB080241EA0C4166E75B
:100F6000014618E710462CE7C6F120022EFA02F3DC
:100F7000B740B14020FA02F24FEA174E0A43B3FBE2
:100F8000FEF8BCB20EFB1833110C41EA034108FB1A
:100F900004F9B04089454FEA104380B23ED9791830
:100FA00008F1FF3C01D289451FD8A1EB0901B1FB33
:100FB000FEF909FB04F80EFB191192B242EA014254
:100FC000424529D2BA1809F1FF31C4D24245C2D2F2
:100FD000A9F102013A44BEE7F0459DD2BEEB0203FF
:100FE0006CEB070C0138E14696E7A7EB0909494489
:100FF000A8F1020CB1FBFEF909FB04F8DBE773462C
:101000007FE7504666E70846FDE63B44023A33E791
:10101000ACF1020C3B441CE749469CE7A1EB0901FB
:10102000C446B1FBFEF909FB04F8C4E7704700BFF2
:1010300080B586B002AF0346FB710023FB73FB79DA
:1010400003F07F03DBB23B7300237B7300233B8100
:101050000A2000F065FC002240210E4800F0EEFE60
:1010600007F1080207F10C014FF0FF330093022350
:10107000094801F022FD01224021064800F0DEFE71
:101080000A2000F04DFC7B7AFB73FB7B184610377F
:10109000BD4680BD00040240F001002080B584B050
:1010A00000AF03460A46FB711346BB71FB7963F040
:1010B0007F03FB73FB7B3B73BB797B730022402177
:1010C000104800F0BBFE0A2000F02AFC07F10C01DA
:1010D0004FF47A7302220C4801F0ABFB00BF0A48C0
:1010E00001F094FE0346012BF9D10122402105486D
:1010F00000F0A4FE0A2000F013FC00BF1037BD462C
:1011000080BD00BF00040240F001002080B582B025
:1011100000AF78607868FFF7B3F803469AB24FF4EF
:10112000FA737968044801F0ABFF0A2000F0F8FB7D
:1011300000BF0837BD4680BD4802002080B582B0A0
:1011400000AF0120FFF774FF0346FB71FB7923F02A
:101150000703FB71FB7919460120FFF79FFF0A2067
:1011600000F0DEFB0120FFF763FF0346FB71FB7914
:1011700063F07F03FB71FB7919460120FFF78EFFB7
:10118000FB7923F00703FB71FB7943F00103FB714B
:10119000FB7919460120FFF781FF0A2000F0C0FB10
:1011A00000BF0837BD4680BD80B582B000AF0120CA
:1011B000FFF73EFF0346FB7197F90730002B03DB77
:1011C0000B48FFF7A3FF0FE0FB7923F00703FB7148
:1011D000FB7943F00303FB71FB7919460120FFF70C
:1011E0005DFF012000F09CFB0837BD4680BD00BFBD
:1011F000487F000880B5ADF5107D00AF00F01EFB04
:1012000000F02AF800F0E8F800F086F800F0BAF8EC
:10121000FFF794FFAE210020FFF740FFFFF7C4FF68
:10122000EA210020FFF73AFF0120FFF701FF034604
:1012300087F83F3297F83F323846064A402103F09C
:1012400001FA3B461846FFF761FF42F2107000F0CA
:1012500067FBFAE7747F000880B594B000AF07F130
:10126000200330220021184603F087FA07F10C030F
:1012700000221A605A609A60DA601A610023BB602B
:10128000234B1B6C224A43F080531364204B1B6C8E
:1012900003F08053BB60BB6800237B601D4B1B6861
:1012A00023F440431B4A43F400431360194B1B686B
:1012B00003F440437B607B6802233B620123FB62B3
:1012C00010233B630023BB6307F12003184600F0A3
:1012D000CFFD0346002B01D000F0C0F80F23FB60C8
:1012E00000233B6100237B610023BB610023FB6182
:1012F00007F10C030021184601F032F80346002BD9
:1013000001D000F0ABF800BF5037BD4680BD00BF34
:10131000003802400070004080B500AF174B184AFB
:101320001A60164B4FF482725A60144B00229A6076
:10133000124B0022DA60114B00221A610F4B00227F
:101340005A610E4B4FF400729A610C4B0022DA6125
:101350000A4B00221A62094B00225A62074B0022F4
:101360009A62064B0A22DA62044801F0D9F9034670
:10137000002B01D000F072F800BF80BDF00100200A
:101380000030014080B500AF114B124A1A60104B7B
:101390004FF4E1325A600E4B00229A600C4B00224F
:1013A000DA600B4B00221A61094B0C225A61084B80
:1013B00000229A61064B0022DA61054801F010FE16
:1013C0000346002B01D000F049F800BF80BD00BFEC
:1013D000480200200044004080B588B000AF07F10B
:1013E0000C0300221A605A609A60DA601A610023C6
:1013F000BB60184B1B6B174A43F001031363154B7B
:101400001B6B03F00103BB60BB6800237B60114BC7
:101410001B6B104A43F0020313630E4B1B6B03F06C
:1014200002037B607B68002240210B4800F006FD30
:101430004023FB6001233B6100237B610023BB61F0
:1014400007F10C031946044800F074FB00BF203775
:10145000BD4680BD003802400004024080B400AFA9
:1014600072B600BF00BFFDE780B483B000AF0023B9
:101470007B60104B5B6C0F4A43F4804353640D4B0D
:101480005B6C03F480437B607B6800233B60094B0B
:101490001B6C084A43F080531364064B1B6C03F02B
:1014A00080533B603B6800BF0C37BD465DF8047B52
:1014B000704700BF0038024080B58AB000AF786046
:1014C00007F1140300221A605A609A60DA601A6108
:1014D0007B681B68194A93422BD100233B61184B50
:1014E0005B6C174A43F480535364154B5B6C03F4F5
:1014F00080533B613B690023FB60114B1B6B104A1F
:1015000043F0010313630E4B1B6B03F00103FB60FD
:10151000FB68E0237B610223BB610023FB610323A3
:101520003B6205237B6207F114031946054800F06E
:1015300001FB00BF2837BD4680BD00BF0030014021
:10154000003802400000024080B58AB000AF7860E9
:1015500007F1140300221A605A609A60DA601A6177
:101560007B681B68194A93422BD100233B61184BBF
:101570001B6C174A43F400331364154B1B6C03F4C4
:1015800000333B613B690023FB60114B1B6B104A2E
:1015900043F0010313630E4B1B6B03F00103FB606D
:1015A000FB680C237B610223BB610023FB610323E7
:1015B0003B6207237B6207F114031946054800F0DC
:1015C000B9FA00BF2837BD4680BD00BF00440040C7
:1015D000003802400000024080B400AF00BFFDE7C9
:1015E00080B400AF00BFFDE780B400AF00BFFDE7EF
:1015F00080B400AF00BFFDE780B400AF00BFFDE7DF
:1016000080B400AF00BFBD465DF8047B704780B476
:1016100000AF00BFBD465DF8047B704780B400AFEB
:1016200000BFBD465DF8047B704780B500AF00F099
:1016300057F900BF80BD80B400AF01231846BD46F6
:101640005DF8047B704780B582B000AF7860396088
:1016500003F0E6F8034616221A604FF0FF331846EF
:101660000837BD4680BD80B582B000AF78604FF0CE
:10167000FF317868FFF7E7FF00BFFDE780B586B070
:1016800000AFF860B9607A6000237B610AE0AFF3D5
:1016900000800146BB685A1CBA60CAB21A707B69E6
:1016A00001337B617A697B689A42F0DB7B6818467C
:1016B0001837BD4680BD80B586B000AFF860B96010
:1016C0007A6000237B6109E0BB685A1CBA601B7812
:1016D0001846AFF300807B6901337B617A697B68D0
:1016E0009A42F1DB7B6818461837BD4680BD80B44E
:1016F00083B000AF78604FF0FF3318460C37BD461B
:101700005DF8047B704780B483B000AF78603960C7
:101710003B684FF400525A60002318460C37BD4610
:101720005DF8047B704780B483B000AF786001231C
:1017300018460C37BD465DF8047B704780B485B011
:1017400000AFF860B9607A60002318461437BD46D0
:101750005DF8047B7047000080B586B000AF78600C
:10176000144A154BD31A7B617B693B61134B1B6891
:10177000002B02D1114B124A1A60104B1A687B6879
:1017800013443A699A4207D203F04AF803460C22FE
:101790001A604FF0FF3309E0084B1B68FB60074BF2
:1017A0001A687B681344054A1360FB6818461837AB
:1017B000BD4680BD00800120000400009002002092
:1017C000E803002080B400AF064BD3F88830054A08
:1017D00043F47003C2F8883000BFBD465DF8047B57
:1017E000704700BF00ED00E0DFF834D0FFF7EAFFFC
:1017F0000C480D490D4A002302E0D458C45004336C
:10180000C4188C42F9D30A4A0A4C002301E0136041
:101810000432A242FBD303F009F8FFF7EBFC704758
:101820000080012000000020D4010020DC8300089B
:10183000D4010020E4030020FEE7000080B500AFE3
:101840000E4B1B680D4A43F4007313600B4B1B686F
:101850000A4A43F480631360084B1B68074A43F449
:1018600080731360032000F031F90F2000F008F8B6
:10187000FFF7FAFD0023184680BD00BF003C024080
:1018800080B582B000AF7860124B1A68124B1B789B
:1018900019464FF47A73B3FBF1F3B2FBF3F3184636
:1018A00000F03BF90346002B01D001230EE07B68DA
:1018B0000F2B0AD8002279684FF0FF3000F011F9A1
:1018C000064A7B681360002300E0012318460837AE
:1018D000BD4680BD0000002008000020040000205C
:1018E00080B400AF064B1B781A46064B1B681344A6
:1018F000044A136000BFBD465DF8047B704700BF1B
:10190000080000209402002080B400AF034B1B6845
:101910001846BD465DF8047B704700BF9402002066
:1019200080B584B000AF7860FFF7EEFFB8607B68E9
:10193000FB60FB68B3F1FF3F05D00A4B1B781A46EA
:10194000FB681344FB6000BFFFF7DEFF0246BB6885
:10195000D31AFA689A42F7D800BF00BF1037BD46C5
:1019600080BD00BF0800002080B485B000AF786063
:101970007B6803F00703FB600C4BDB68BB60BA6855
:101980004FF6FF031340BB60FB681A02BB681343AA
:1019900043F0BF6343F40033BB60044ABB68D360C9
:1019A00000BF1437BD465DF8047B704700ED00E0D2
:1019B00080B400AF044BDB681B0A03F00703184632
:1019C000BD465DF8047B704700ED00E080B483B055
:1019D00000AF03463960FB7197F90730002B0ADB33
:1019E0003B68DAB20C4997F907301201D2B20B44C6
:1019F00083F800230AE03B68DAB20849FB7903F078
:101A00000F03043B1201D2B20B441A7600BF0C370D
:101A1000BD465DF8047B704700E100E000ED00E0AA
:101A200080B489B000AFF860B9607A60FB6803F0F9
:101A30000703FB61FB69C3F10703042B28BF0423E1
:101A4000BB61FB690433062B02D9FB69033B00E051
:101A500000237B614FF0FF32BB6902FA03F3DA43E4
:101A6000BB681A407B699A404FF0FF317B6901FAED
:101A700003F3D9437B680B40134318462437BD4614
:101A80005DF8047B7047000080B582B000AF7860DD
:101A90007B68013BB3F1807F01D301230FE00A4A49
:101AA0007B68013B53600F214FF0FF30FFF78EFF43
:101AB000054B00229A60044B07221A600023184647
:101AC0000837BD4680BD00BF10E000E080B582B0A1
:101AD00000AF78607868FFF747FF00BF0837BD4662
:101AE00080BD80B586B000AF0346B9607A60FB73F5
:101AF00000237B61FFF75CFF78617A68B9687869D9
:101B0000FFF78EFF024697F90F3011461846FFF790
:101B10005DFF00BF1837BD4680BD80B582B000AF05
:101B200078607868FFF7B0FF034618460837BD466F
:101B300080BD000080B489B000AF786039600023B8
:101B40007B6100233B610023BB610023FB6159E102
:101B50000122FB6902FA03F37B613B681B687A6927
:101B600013403B613A697B699A4240F048813B6887
:101B70005B6803F00303012B05D03B685B6803F04F
:101B80000303022B30D17B689B68BB61FB695B0060
:101B9000032202FA03F3DB43BA691340BB613B68DB
:101BA000DA68FB695B0002FA03F3BA691343BB61AD
:101BB0007B68BA699A607B685B68BB610122FB69DC
:101BC00002FA03F3DB43BA691340BB613B685B680D
:101BD0001B0903F00102FB6902FA03F3BA6913431C
:101BE000BB617B68BA695A603B685B6803F00303BA
:101BF000032B17D07B68DB68BB61FB695B000322AA
:101C000002FA03F3DB43BA691340BB613B689A688D
:101C1000FB695B0002FA03F3BA691343BB617B689B
:101C2000BA69DA603B685B6803F00303022B23D1D7
:101C3000FB69DA087B68083253F82230BB61FB6924
:101C400003F007039B000F2202FA03F3DB43BA6998
:101C50001340BB613B681A69FB6903F007039B00F3
:101C600002FA03F3BA691343BB61FB69DA087B68C4
:101C70000832B96943F822107B681B68BB61FB69B5
:101C80005B00032202FA03F3DB43BA691340BB6132
:101C90003B685B6803F00302FB695B0002FA03F335
:101CA000BA691343BB617B68BA691A603B685B68B9
:101CB00003F44033002B00F0A2800023FB60574B5D
:101CC0005B6C564A43F480435364544B5B6C03F49F
:101CD0008043FB60FB68524AFB699B08023352F861
:101CE0002330BB61FB6903F003039B000F2202FA60
:101CF00003F3DB43BA691340BB617B68494A9342F3
:101D000019D07B68484A934213D07B68474A934274
:101D10000DD07B68464A934207D07B68454A934280
:101D200001D1042308E0072306E0032304E0022393
:101D300002E0012300E00023FA6902F003029200AE
:101D40009340BA691343BB613549FB699B08023371
:101D5000BA6941F82320384B9B68BB613B69DB4380
:101D6000BA691340BB613B685B6803F48013002BC6
:101D700003D0BA693B691343BB612F4ABB699360C7
:101D80002D4BDB68BB613B69DB43BA691340BB6128
:101D90003B685B6803F40013002B03D0BA693B690E
:101DA0001343BB61244ABB69D360234B5B68BB61AF
:101DB0003B69DB43BA691340BB613B685B6803F472
:101DC0000033002B03D0BA693B691343BB611A4A45
:101DD000BB695360184B1B68BB613B69DB43BA6945
:101DE0001340BB613B685B6803F48033002B03D076
:101DF000BA693B691343BB610F4ABB691360FB6956
:101E00000133FB61FB690F2B7FF6A2AE00BF00BF61
:101E10002437BD465DF8047B704700BF00380240A0
:101E20000038014000000240000402400008024067
:101E3000000C024000100240003C014080B483B01E
:101E400000AF78600B467B8013467B707B78002B5D
:101E500003D07A887B689A6103E07B881A047B68E8
:101E60009A6100BF0C37BD465DF8047B70470000E7
:101E700080B586B000AF78607B68002B01D101236C
:101E800067E27B681B6803F00103002B75D0884B69
:101E90009B6803F00C03042B0CD0854B9B6803F06C
:101EA0000C03082B12D1824B5B6803F48003B3F55B
:101EB000800F0BD17E4B1B6803F40033002B5BD0EB
:101EC0007B685B68002B57D1012342E27B685B682B
:101ED000B3F5803F06D1764B1B68754A43F48033D7
:101EE00013601DE07B685B68B3F5A02F0CD1704BCD
:101EF0001B686F4A43F4802313606D4B1B686C4A68
:101F000043F4803313600BE0694B1B68684A23F489
:101F100080331360664B1B68654A23F4802313608B
:101F20007B685B68002B13D0FFF7EEFC386108E09C
:101F3000FFF7EAFC02463B69D31A642B01D903235D
:101F400007E25B4B1B6803F40033002BF0D014E076
:101F5000FFF7DAFC386108E0FFF7D6FC02463B6980
:101F6000D31A642B01D90323F3E1514B1B6803F40B
:101F70000033002BF0D100E000BF7B681B6803F04A
:101F80000203002B63D04A4B9B6803F00C03002B29
:101F90000BD0474B9B6803F00C03082B1CD1444B20
:101FA0005B6803F48003002B16D1414B1B6803F0E0
:101FB0000203002B05D07B68DB68012B01D00123D5
:101FC000C7E13B4B1B6823F0F8027B681B69DB0011
:101FD000374913430B603AE07B68DB68002B20D065
:101FE000344B01221A60FFF78FFC386108E0FFF7DD
:101FF0008BFC02463B69D31A022B01D90323A8E1CB
:102000002B4B1B6803F00203002BF0D0284B1B68FE
:1020100023F0F8027B681B69DB00254913430B6042
:1020200015E0244B00221A60FFF76EFC386108E0CF
:10203000FFF76AFC02463B69D31A022B01D903233E
:1020400087E11B4B1B6803F00203002BF0D17B6878
:102050001B6803F00803002B36D07B685B69002BFC
:1020600016D0154B01221A60FFF74EFC386108E0CC
:10207000FFF74AFC02463B69D31A022B01D903231E
:1020800067E10B4B5B6F03F00203002BF0D01BE00A
:10209000094B00221A60FFF737FC38610EE0FFF7AA
:1020A00033FC02463B69D31A022B07D9032350E1C4
:1020B0000038024000004742800E4742884B5B6F69
:1020C00003F00203002BEAD17B681B6803F00403D2
:1020D000002B00F097800023FB75814B1B6C03F0F5
:1020E0008053002B0FD10023BB607D4B1B6C7C4ABF
:1020F00043F0805313647A4B1B6C03F08053BB6036
:10210000BB680123FB75774B1B6803F48073002BBE
:1021100018D1744B1B68734A43F480731360FFF744
:10212000F3FB386108E0FFF7EFFB02463B69D31A87
:10213000022B01D903230CE16A4B1B6803F4807363
:10214000002BF0D07B689B68012B06D1644B1B6F82
:10215000634A43F0010313671CE07B689B68052B0F
:102160000CD15F4B1B6F5E4A43F0040313675C4B5B
:102170001B6F5B4A43F0010313670BE0584B1B6F67
:10218000574A23F001031367554B1B6F544A23F042
:10219000040313677B689B68002B15D0FFF7B4FB23
:1021A00038610AE0FFF7B0FB02463B69D31A41F2FF
:1021B0008832934201D90323CBE0494B1B6F03F0D4
:1021C0000203002BEED014E0FFF79EFB38610AE01B
:1021D000FFF79AFB02463B69D31A41F288329342D9
:1021E00001D90323B5E03E4B1B6F03F00203002B24
:1021F000EED1FB7D012B05D1394B1B6C384A23F006
:10220000805313647B689B69002B00F0A180344BE2
:102210009B6803F00C03082B5CD07B689B69022B46
:1022200041D1314B00221A60FFF76EFB386108E0A4
:10223000FFF76AFB02463B69D31A022B01D903233D
:1022400087E0274B1B6803F00073002BF0D17B68FD
:10225000DA697B681B6A1A437B685B6A9B011A43D5
:102260007B689B6A5B08013B1B041A437B68DB6A43
:102270001B061B4913434B601B4B01221A60FFF7DF
:1022800043FB386108E0FFF73FFB02463B69D31A86
:10229000022B01D903235CE0114B1B6803F0007390
:1022A000002BF0D054E0104B00221A60FFF72CFBFB
:1022B000386108E0FFF728FB02463B69D31A022B7E
:1022C00001D9032345E0064B1B6803F00073002B84
:1022D000F0D13DE07B689B69012B07D1012338E0F9
:1022E0000038024000700040600047421B4B5B68B2
:1022F000FB607B689B69012B28D0FB6803F480029C
:102300007B68DB699A4221D1FB6803F03F027B685E
:102310001B6A9A421AD1FA6847F6C07313407A686A
:10232000526A9201934211D1FB6803F440327B68F8
:102330009B6A5B08013B1B049A4207D1FB6803F0D0
:1023400070627B68DB6A1B069A4201D0012300E0C1
:10235000002318461837BD4680BD00BF0038024034
:1023600080B584B000AF786039607B68002B01D104
:102370000123CCE0684B1B6803F007033A689A42DC
:102380000CD9654B3A68D2B21A70634B1B6803F0E4
:1023900007033A689A4201D00123B8E07B681B68C2
:1023A00003F00203002B20D07B681B6803F00403BA
:1023B000002B05D0594B9B68584A43F4E053936077
:1023C0007B681B6803F00803002B05D0534B9B6808
:1023D000524A43F460439360504B9B6823F0F002F1
:1023E0007B689B684D4913438B607B681B6803F0D7
:1023F0000103002B44D07B685B68012B07D1474B5E
:102400001B6803F40033002B19D101237FE07B68A4
:102410005B68022B03D07B685B68032B07D13F4BC3
:102420001B6803F00073002B09D101236FE03B4BC5
:102430001B6803F00203002B01D1012367E0374B37
:102440009B6823F003027B685B68344913438B600D
:10245000FFF75AFAF8600AE0FFF756FA0246FB68FF
:10246000D31A41F28832934201D903234FE02B4B18
:102470009B6803F00C027B685B689B009A42EBD17F
:10248000254B1B6803F007033A689A420CD2224B93
:102490003A68D2B21A70204B1B6803F007033A68FF
:1024A0009A4201D0012332E07B681B6803F00403E9
:1024B000002B08D0194B9B6823F4E0527B68DB6843
:1024C000164913438B607B681B6803F00803002BDD
:1024D00009D0124B9B6823F460427B681B69DB00C8
:1024E0000E4913438B6000F021F802460B4B9B68AA
:1024F0001B0903F00F030A49CB5C22FA03F3094AD4
:102500001360094B1B681846FFF7BAF900231846F9
:102510001037BD4680BD00BF003C0240003802407D
:10252000887F000800000020040000202DE9B04F43
:1025300090B000AF00237B630023FB6300233B6369
:102540000023BB63594B9B6803F00C03082B0DD091
:10255000082B00F2A180002B02D0042B03D09BE0BB
:10256000534BBB639BE0534BBB6398E04F4B5B68A3
:1025700003F03F037B634D4B5B6803F48003002B48
:1025800028D04A4B5B689B0900223B627A623B6A17
:10259000C3F308000021474B03FB01F2002300FBBB
:1025A00003F31344434AA0FB0212FA620A46BA62DA
:1025B000FA6A1344FB627B6B0022BB61FA61D7E9C4
:1025C0000623D7E90A01FEF767FB02460B461346CE
:1025D000FB6353E0354B5B689B0900223B617A61EA
:1025E0003B69C3F3080A4FF0000B52465B464FF0BD
:1025F00000004FF00001590141EAD261500102464A
:102600000B46B2EB0A0863EB0B094FF000024FF0E8
:1026100000034FEA891343EA98634FEA8812B2EB4A
:10262000080463EB09054FF000024FF00003EB00D4
:1026300043EA5473E20014461D4614EB0A033B6060
:1026400045EB0B037B604FF000024FF00003D7E92E
:10265000004529468B02214643EA915321468A02CE
:10266000104619467B6B0022BB60FA60D7E9022353
:10267000FEF712FB02460B461346FB630B4B5B68EF
:102680001B0C03F0030301335B003B63FA6B3B6BF2
:10269000B2FBF3F3BB6302E0054BBB6300BFBB6B54
:1026A00018464037BD46BDE8B08F00BF0038024035
:1026B0000024F40040787D0180B400AF034B1B6818
:1026C0001846BD465DF8047B704700BF000000203F
:1026D00080B500AFFFF7F0FF0246054B9B689B0AF1
:1026E00003F007030349CB5C22FA03F3184680BDCD
:1026F00000380240987F000880B500AFFFF7DCFF8C
:102700000246054B9B685B0B03F007030349CB5C58
:1027100022FA03F3184680BD00380240987F000873
:1027200080B582B000AF78607B68002B01D10123B7
:102730007BE07B685B6A002B08D17B685B68B3F544
:10274000827F09D07B680022DA6105E07B68002285
:102750001A617B6800225A617B6800229A627B685A
:1027600093F85130DBB2002B06D17B68002283F84E
:1027700050207868FEF7A0FE7B68022283F8512083
:102780007B681B681A687B681B6822F040021A602D
:102790007B685B6803F482727B689B6803F4044384
:1027A0001A437B68DB6803F400631A437B681B6988
:1027B00003F002031A437B685B6903F001031A43C9
:1027C0007B689B6903F400731A437B68DB6903F041
:1027D00038031A437B681B6A03F0800342EA030153
:1027E0007B689B6A03F400527B681B680A431A608B
:1027F0007B689B691B0C03F004017B685B6A03F038
:1028000010027B681B680A435A607B681B68DA69A0
:102810007B681B6822F40062DA617B6800225A65DB
:102820007B68012283F85120002318460837BD46F3
:1028300080BD80B588B000AFF860B9603B601346DA
:10284000FB80FFF761F8F861FB887B83FB6893F8F6
:102850005130DBB2012B01D002232AE1BB68002BEF
:1028600002D0FB88002B01D1012322E1FB6893F801
:102870005030012B01D102231BE1FB68012283F8B8
:102880005020FB68032283F85120FB6800225A6520
:10289000FB68BA681A63FB68FA889A86FB68FA884C
:1028A000DA86FB6800229A63FB6800229A87FB683D
:1028B0000022DA87FB6800225A64FB6800221A644F
:1028C000FB689B68B3F5004F0FD1FB681B681A6863
:1028D000FB681B6822F040021A60FB681B681A68DC
:1028E000FB681B6842F480421A60FB681B681B6827
:1028F00003F04003402B07D0FB681B681A68FB6895
:102900001B6842F040021A60FB68DB68B3F5006F99
:1029100052D1FB685B68002B02D07B8B012B45D129
:10292000FB681B6B1A88FB681B68DA60FB681B6B13
:102930009A1CFB681A63FB68DB8E9BB2013B9AB260
:10294000FB68DA8632E0FB681B689B6803F00203D1
:10295000022B12D1FB681B6B1A88FB681B68DA60BC
:10296000FB681B6B9A1CFB681A63FB68DB8E9BB2CF
:10297000013B9AB2FB68DA8618E0FEF7C5FF024613
:10298000FB69D31A3A689A4203D83B68B3F1FF3F18
:1029900002D13B68002B09D1FB68012283F851204A
:1029A000FB68002283F85020032382E0FB68DB8E63
:1029B0009BB2002BC7D153E0FB685B68002B02D0B1
:1029C0007B8B012B47D1FB681A6BFB681B680C33B0
:1029D00012781A70FB681B6B5A1CFB681A63FB6841
:1029E000DB8E9BB2013B9AB2FB68DA8633E0FB6870
:1029F0001B689B6803F00203022B13D1FB681A6B60
:102A0000FB681B680C3312781A70FB681B6B5A1C2E
:102A1000FB681A63FB68DB8E9BB2013B9AB2FB68D2
:102A2000DA8618E0FEF770FF0246FB69D31A3A68AF
:102A30009A4203D83B68B3F1FF3F02D13B68002BB9
:102A400009D1FB68012283F85120FB68002283F83A
:102A5000502003232DE0FB68DB8E9BB2002BC6D1F8
:102A6000FA693968F86800F067FA0346002B02D06B
:102A7000FB6820225A65FB689B68002B0AD1002363
:102A80007B61FB681B68DB687B61FB681B689B687C
:102A90007B617B69FB68012283F85120FB6800227F
:102AA00083F85020FB685B6D002B01D0012300E010
:102AB000002318462037BD4680BD80B58AB000AFE0
:102AC000F860B9607A607B8001237B62FEF71CFFAF
:102AD0003862FB6893F85130FB77FB685B68BB6139
:102AE0007B88FB82FB7F012B0CD0BB69B3F5827F17
:102AF00006D1FB689B68002B02D1FB7F042B01D021
:102B000002237FE1BB68002B05D07B68002B02D03D
:102B10007B88002B01D1012374E1FB6893F85030CE
:102B2000012B01D102236DE1FB68012283F85020C3
:102B3000FB6893F85130DBB2042B03D0FB6805220D
:102B400083F85120FB6800225A65FB687A689A6313
:102B5000FB687A88DA87FB687A889A87FB68BA68A4
:102B60001A63FB687A88DA86FB687A889A86FB683B
:102B700000221A64FB6800225A64FB681B681B6809
:102B800003F04003402B07D0FB681B681A68FB6802
:102B90001B6842F040021A60FB68DB68B3F5006F07
:102BA0007ED1FB685B68002B02D0FB8A012B6CD1C5
:102BB000FB681B6B1A88FB681B68DA60FB681B6B81
:102BC0009A1CFB681A63FB68DB8E9BB2013B9AB2CE
:102BD000FB68DA8659E0FB681B689B6803F0020318
:102BE000022B1BD1FB68DB8E9BB2002B16D07B6ABD
:102BF000012B13D1FB681B6B1A88FB681B68DA601A
:102C0000FB681B6B9A1CFB681A63FB68DB8E9BB22C
:102C1000013B9AB2FB68DA8600237B62FB681B6883
:102C20009B6803F00103012B19D1FB68DB8F9BB27A
:102C3000002B14D0FB681B68DA68FB689B6B92B2B0
:102C40001A80FB689B6B9A1CFB689A63FB68DB8F9E
:102C50009BB2013B9AB2FB68DA8701237B62FEF7E5
:102C600053FE02463B6AD31A3A6B9A420DD83B6B2D
:102C7000B3F1FF3F09D0FB68012283F85120FB68C4
:102C8000002283F850200323BCE0FB68DB8E9BB25C
:102C9000002BA0D1FB68DB8F9BB2002B9BD182E085
:102CA000FB685B68002B02D0FB8A012B71D1FB68AB
:102CB0001A6BFB681B680C3312781A70FB681B6B6D
:102CC0005A1CFB681A63FB68DB8E9BB2013B9AB20D
:102CD000FB68DA865DE0FB681B689B6803F0020313
:102CE000022B1CD1FB68DB8E9BB2002B17D07B6ABA
:102CF000012B14D1FB681A6BFB681B680C3312782C
:102D00001A70FB681B6B5A1CFB681A63FB68DB8E2E
:102D10009BB2013B9AB2FB68DA8600237B62FB68B8
:102D20001B689B6803F00103012B19D1FB68DB8F43
:102D30009BB2002B14D0FB681B68DA68FB689B6BA6
:102D4000D2B21A70FB689B6B5A1CFB689A63FB68D3
:102D5000DB8F9BB2013B9AB2FB68DA8701237B626F
:102D6000FEF7D2FD02463B6AD31A3A6B9A4203D869
:102D70003B6BB3F1FF3F02D13B6B002B09D1FB68EA
:102D8000012283F85120FB68002283F8502003239E
:102D900038E0FB68DB8E9BB2002B9CD1FB68DB8F9D
:102DA0009BB2002B97D13A6A396BF86800F0C4F8EF
:102DB0000346002B08D0FB6820225A65FB680022DE
:102DC00083F8502001231DE0FB689B68002B0AD18B
:102DD00000233B61FB681B68DB683B61FB681B6889
:102DE0009B683B613B69FB68012283F85120FB68CB
:102DF000002283F85020FB685B6D002B01D001237B
:102E000000E0002318462837BD4680BD80B483B05B
:102E100000AF78607B6893F85130DBB218460C370E
:102E2000BD465DF8047B704780B588B000AFF860A0
:102E3000B9603B601346FB71FEF766FD0246BB6A54
:102E40009B1A3A681344FB61FEF75EFDB861394B8B
:102E50001B685B011B0DFA6902FB03F37B6155E004
:102E60003B68B3F1FF3F51D0FEF74EFD0246BB6910
:102E7000D31AFA699A4202D9FB69002B3DD1FB684B
:102E80001B685A68FB681B6822F0E0025A60FB6806
:102E90005B68B3F5827F11D1FB689B68B3F5004F87
:102EA00004D0FB689B68B3F5806F07D1FB681B6893
:102EB0001A68FB681B6822F040021A60FB689B6A74
:102EC000B3F5005F0FD1FB681B681A68FB681B68CD
:102ED00022F400521A60FB681B681A68FB681B68C2
:102EE00042F400521A60FB68012283F85120FB680B
:102EF000002283F85020032318E07B69002B02D1C5
:102F00000023FB6102E07B69013B7B61FB681B687E
:102F10009A68BB681340BA689A420CBF0123002329
:102F2000DBB21A46FB799A429AD100231846203721
:102F3000BD4680BD0000002080B588B002AFF860BB
:102F4000B9607A607B680093BB6801220221F8684F
:102F5000FFF76AFF0346002B07D0FB685B6D43F069
:102F60002002FB685A65032332E01B4B1B681B4A97
:102F7000A2FB03235B0D4FF47A7202FB03F37B6128
:102F8000FB685B68B3F5827F12D17B680093BB68F6
:102F900000228021F868FFF747FF0346002B16D078
:102FA000FB685B6D43F02002FB685A6503230FE06A
:102FB0007B69002B0AD07B69013B7B61FB681B6846
:102FC0009B6803F08003802BF2D000E000BF002359
:102FD00018461837BD4680BD00000020819F5E1650
:102FE00080B582B000AF78607B68002B01D10123EF
:102FF00042E07B6893F84130DBB2002B06D17B685E
:10300000002283F840207868FEF79EFA7B6824222D
:1030100083F841207B681B68DA687B681B6822F4B0
:103020000052DA60786800F073F97B681B681A69EF
:103030007B681B6822F490421A617B681B685A699E
:103040007B681B6822F02A025A617B681B68DA6879
:103050007B681B6842F40052DA607B6800225A6485
:103060007B68202283F841207B68202283F842205D
:103070007B6800225A63002318460837BD4680BD8E
:1030800080B58AB002AFF860B9603B601346FB8040
:1030900000237B61FB6893F84130DBB2202B75D1B4
:1030A000BB68002B02D0FB88002B01D101236EE00E
:1030B000FB6800225A64FB68212283F84120FEF756
:1030C00023FC7861FB68FA889A84FB68FA88DA84C2
:1030D000FB689B68B3F5805F08D1FB681B69002B18
:1030E00004D10023FB61BB68BB6103E0BB68FB61EB
:1030F0000023BB612EE03B6800937B6900228021A6
:10310000F86800F048F80346002B05D0FB68202241
:1031100083F8412003233AE0FB69002B0BD1BB6904
:103120001B881A46FB681B68C2F308025A60BB6919
:103130000233BB6107E0FB691A78FB681B685A60C1
:10314000FB690133FB61FB68DB8C9BB2013B9AB2EC
:10315000FB68DA84FB68DB8C9BB2002BCBD13B682D
:1031600000937B6900224021F86800F014F80346C0
:10317000002B05D0FB68202283F84120032306E0C2
:10318000FB68202283F84120002300E00223184638
:103190002037BD4680BD80B586B000AFF860B9600D
:1031A0003B601346FB713BE03B6AB3F1FF3F37D016
:1031B000FEF7AAFB02463B68D31A3A6A9A4202D348
:1031C0003B6A002B01D103233AE0FB681B68DB68F4
:1031D00003F00403002B23D0BB68802B20D0BB68F6
:1031E000402B1DD0FB681B681B6803F00803082BED
:1031F00016D100237B61FB681B681B687B61FB6841
:103200001B685B687B617B69F86800F01DF8FB68F0
:1032100008225A64FB68002283F8402001230FE053
:10322000FB681B681A68BB681340BA689A420CBFF7
:1032300001230023DBB21A46FB799A42B4D0002363
:1032400018461837BD4680BD80B495B000AF786091
:103250007B681B680C337B637B6B53E8003F3B63ED
:103260003B6B23F49073FB647B681B680C33FA6C34
:103270003A64FB63F96B3A6C41E80023BB63BB6BB8
:10328000002BE5D17B681B6814333B623B6A53E833
:10329000003FFB61FB6923F00103BB647B681B6893
:1032A0001433BA6CFA62BB62B96AFA6A41E8002365
:1032B0007B627B6A002BE5D17B681B6B012B19D1EC
:1032C0007B681B680C33FB60FB6853E8003FBB6006
:1032D000BB6823F010037B647B681B680C337A6C3B
:1032E000BA617B617969BA6941E800233B613B6956
:1032F000002BE5D17B68202283F842207B680022E6
:103300001A6300BF5437BD465DF8047B7047000068
:103310002DE9B04FC0B000AFC7F8F400D7F8F430D3
:103320001B681B6923F44050D7F8F430D968D7F8EC
:10333000F4301A6840EA01031361D7F8F4309A6850
:10334000D7F8F4301B691A43D7F8F4305B691A4395
:10335000D7F8F430DB691343C7F8F830D7F8F43006
:103360001B68DB6823F4164121F00C01D7F8F43018
:103370001A68D7F8F8300B43D360D7F8F4301B68DD
:103380005B6923F44070D7F8F4309969D7F8F430CA
:103390001A6840EA01035361D7F8F4301A688F4B7A
:1033A0009A4205D0D7F8F4301A688D4B9A4204D16E
:1033B000FFF7A2F9C7F8FC0003E0FFF789F9C7F8A7
:1033C000FC00D7F8F430DB69B3F5004F40F00C8116
:1033D000D7F8FC300022C7F8E830C7F8EC20D7E96E
:1033E0003A4522462B469118B9655B41FB65D7E902
:1033F0001623214612EB0108294643EB01094FF041
:1034000000024FF000034FEAC90343EA58734FEA42
:10341000C80290469946234618EB0303C7F8E030EC
:103420002B4649EB0303C7F8E430D7F8F4305B6868
:103430000022C7F8D830C7F8DC20D7E936120B468F
:10344000DB183B65134642EB03037B65D7E9142386
:10345000D7E93801FDF720FC02460B46614BA3FB80
:1034600002235B091C01D7F8FC300022C7F8D030DA
:10347000C7F8D420D7E9348942464B469118B9643D
:103480005B41FB64D7E91223414612EB010A49462E
:1034900043EB010B4FF000024FF000034FEACB0368
:1034A00043EA5A734FEACA0292469B4643461AEBD6
:1034B0000303C7F8C8304B464BEB0303C7F8CC30C7
:1034C000D7F8F4305B680022C7F8C030C7F8C420D2
:1034D000D7E930120B46DB183B64134642EB03037B
:1034E0007B64D7E91023D7E93201FDF7D5FB02460B
:1034F0000B4611463B4BA3FB01235B09642202FBF5
:1035000003F3CB1ADB0003F13202364BA3FB022399
:103510005B095B0003F4F8731C44D7F8FC3000220D
:10352000C7F8B830C7F8BC20D7E92E8942464B46C9
:103530009118B9635B41FB63D7E90E2341465118EB
:10354000396349464B417B634FF000024FF0000363
:10355000D7E90CAB5946CB00514643EA517351466B
:10356000CA0010461946034642469B18C7F8B030B9
:103570004B460A4642EB0303C7F8B430D7F8F430A1
:103580005B680022C7F8A830C7F8AC20D7E92A1238
:103590000B46DB18BB62134642EB0303FB62D7E921
:1035A0000A23D7E92C01FDF777FB02460B460D4BAA
:1035B000A3FB02135B09642101FB03F3D31ADB00B5
:1035C0003233084AA2FB03235B0903F00702D7F852
:1035D000F4301B6822449A6006E100BF00100140ED
:1035E000001401401F85EB51D7F8FC300022C7F8CA
:1035F000A030C7F8A420D7E9288942464B46911845
:1036000039625B417B62D7E9082341465418494639
:1036100043EB01054FF000024FF00003EB0043EADB
:103620005473E20014461D464346E318C7F8983029
:103630004B4645EB0303C7F89C30D7F8F4305B6882
:103640000022C7F89030C7F894204FF000024FF0E6
:103650000003D7E9244529468B00214643EA9173AC
:1036600021468A00D7E92601FDF716FB02460B46E4
:10367000604BA3FB02235B091C01D7F8FC3000223E
:10368000C7F88830C7F88C20D7E9228942464B46D4
:103690009118B9615B41FB61D7E906234146511896
:1036A000396149464B417B614FF000024FF0000306
:1036B000D7E904AB5946CB00514643EA5173514612
:1036C000CA0010461946034642469B18C7F8803088
:1036D0004B460A4642EB0303C7F88430D7F8F43070
:1036E0005B680022BB67FA674FF000024FF00003EF
:1036F000D7E91E8949468B00414643EA917341460A
:103700008A00D7E92001FDF7C7FA02460B461146A9
:10371000384BA3FB01235B09642202FB03F3CB1AA2
:103720001B013233334AA2FB03235B0903F0F0038E
:103730001C44D7F8FC3000223B677A67D7E91C8924
:1037400042464B469118B9605B41FB60D7E90223C2
:1037500041465118396049464B417B604FF00002A9
:103760004FF00003D7E900AB5946CB00514643EA7E
:1037700051735146CA0010461946034642469B18EB
:10378000BB664B460A4642EB0303FB66D7F8F430B0
:103790005B6800223B667A664FF000024FF0000340
:1037A000D7E9188949468B00414643EA917341465F
:1037B0008A00D7E91A01FDF76FFA02460B460D4B56
:1037C000A3FB02135B09642101FB03F3D31A1B0162
:1037D0003233084AA2FB03235B0903F00F02D7F838
:1037E000F4301B6822449A6000BF07F58077BD461D
:1037F000BDE8B08F1F85EB512DE9FF4757EC106BEB
:10380000002F0C4619463B46BBBF07F100431F463D
:1038100000232D230B700D9BDDF830A0914623F083
:103820002008BCBF32461646B8F1460F05D0B8F1A5
:10383000450F00D10134022100E0032103AB0193C5
:1038400002AB009347EC106B5346224601F0A4F8FC
:10385000B8F1470F054619D119F0010F0ED000EB52
:1038600004090022002330463946FDF735F908B136
:10387000CDF80C903022039B4B451ED3039B0E9A30
:103880005B1B2846136004B0BDE8F087B8F1460F13
:1038900000EB0409E5D10378302B0AD10022002384
:1038A00030463946FDF718F918B9C4F10104CAF8D1
:1038B0000040DAF800309944D3E7591C03911A709C
:1038C000D9E7F7B50029BABF49422D232B2309298F
:1038D0000270437029DD0DF107031D460A271A46C1
:1038E000B1FBF7F607FB1614303402F8014C0C4616
:1038F000632C03F1FF333146F1DC3031941E03F8C1
:10390000011C411C2346AB420AD30DF109039B1A4B
:10391000AC4288BF002302330344181A03B0F0BD41
:1039200013F8016B01F8016FEDE73023303183703C
:10393000C170031DF1E700002DE9F04F8DB00C467A
:10394000DDF8588016461F46054600F01FFF036845
:1039500004931846FCF794FC00230A93D8F800302F
:103960000590073323F0070303F1080294F818A029
:10397000D4F800B0C8F80020D3E9008929F000434A
:103980000793CDF81880C4E91289DDE906019C4B44
:103990004FF0FF32FDF7D2F870BBDDE90601984B1E
:1039A0004FF0FF32FDF7ACF830BB00220023404659
:1039B0004946FDF79BF810B12D2384F84330914A16
:1039C000914BBAF1470F8CBF904698460323236171
:1039D0002BF0040323604FF00009009733460BAA35
:1039E0002146284600F0D2F9013040F08D804FF09A
:1039F000FF300DB0BDE8F08F42464B464046494689
:103A0000FDF79CF840B14B46002BBCBF2D2384F83A
:103A100043307E4A7E4BD4E763680AF0DF020692A9
:103A20005A1C3BD1062363604BF480620023226062
:103A300003930AABCDE901A309AB0093616849EC9C
:103A4000108B0DF123032846FFF7D6FE069B09993C
:103A5000472B804629D1C81C02DB6368994241DDAF
:103A6000AAF1020A5FFA8AFA0139524604F15000BB
:103A70000991FFF726FF0A9A1318012A814623614C
:103A800002DC2268D20701D5013323619DF823307F
:103A9000002BA2D02D2384F843309EE7069A472AB4
:103AA000C2D1002BC0D10123BDE7BAF1650FDBD92C
:103AB000BAF1660F18D1002963680BDD216113B9D3
:103AC0002268D00702D501330B442361A1654FF072
:103AD0000009DBE713B92268D20701D50233F4E706
:103AE0000123F2E74FF0670A0A9B994205DB23683E
:103AF0002161D807EAD54B1CE7E70029D4BFC1F103
:103B0000020201221344E0E723685A0507D423691F
:103B1000424631462846B84701302BD167E7BAF113
:103B2000650F40F2DD80D4E9120100220023FCF78A
:103B3000D3FF002833D0374A012331462846B847FF
:103B400001303FF454AFDDE90938434502DB236817
:103B5000D8070FD5DDE9042331462846B8470130A0
:103B60003FF445AF4FF0000908F1FF3804F11A0A9D
:103B7000C84509DC23689B0700F10381E0680B9BC3
:103B80009842B8BF184634E70123524631462846CA
:103B9000B84701303FF42BAF09F10109E8E7099B71
:103BA000002B39DC1B4A012331462846B847013037
:103BB0003FF41DAFDDE9093959EA030302D1236857
:103BC000D907D7D5DDE9042331462846B847013067
:103BD0003FF40DAF4FF0000A04F11A0B099B5B4252
:103BE000534501DC4B4693E701235A4631462846AC
:103BF000B84701303FF4FBAE0AF1010AEEE700BF1F
:103C0000FFFFEF7FA47F0008A07F0008AC7F0008C3
:103C1000A87F0008B07F0008A36DDDF828A05345F9
:103C2000A8BF5346002B994636DC4FF0000B29EA1B
:103C3000E97904F11A02A36D0693A3EB09035B452E
:103C400031DC099B9A453ADC2368DA0737D4099BB3
:103C5000AAEB0309069BAAEB03039945A8BF994663
:103C6000B9F1000F33DC4FF0000829EAE97904F1DB
:103C70001A0B099BAAEB0303A3EB090343457FF748
:103C800079AF01235A4631462846B84701303FF400
:103C9000AEAE08F10108ECE7424631462846B84787
:103CA0000130C2D1A3E60123314628460692B84727
:103CB00001303FF49CAE069A0BF1010BBBE7DDE946
:103CC000042331462846B8470130C0D18FE6069A12
:103CD0004B46424431462846B8470130C3D186E6B8
:103CE000DDF828A0BAF1010F01DCDB0736D501238E
:103CF000424631462846B84701303FF478AEDDE908
:103D0000042331462846B84701303FF470AED4E969
:103D10001201002200230AF1FF3AFCF7DDFEC0B9D0
:103D2000534608F1010231462846B84701300CD10C
:103D30005DE601235A4631462846B84701303FF434
:103D400056AE08F10108D045F3DB4B4604F15002B2
:103D5000DFE64FF0000804F11A0BF4E701234246B6
:103D6000E1E701234A4631462846B84701303FF48F
:103D70003EAE08F10108E3680B995B1A4345F0DC9D
:103D8000FCE64FF0000804F11909F4E72DE9F047CB
:103D9000164698468A680B69DDF820909342B8BFB2
:103DA0001346336091F8432007460C460AB10133AD
:103DB00033602368990642BF336802333360256855
:103DC00015F0060506D104F1190AE36832689B1A5A
:103DD000AB4226DC94F843302268003B18BF012335
:103DE00092062BD404F1430241463846C8470130BD
:103DF0001ED02368226903F00603042B02BFE56886
:103E00003368ED1AA3680CBF25EAE57500259342D7
:103E1000C4BF9B1AED1800261A34B5421AD10020EF
:103E200008E00123524641463846C847013003D1D5
:103E30004FF0FF30BDE8F0870135C6E7E1185A1CA6
:103E4000302081F84300224494F8451082F8431052
:103E50000233C7E70123224641463846C8470130AE
:103E6000E6D00136D9E700002DE9FF470F7E0C9E12
:103E7000782F914680460C469A4601F1430207D8B6
:103E8000622F0AD8002F00F0D180582F00F0B880A0
:103E900004F1420684F842703AE0A7F16303152B5F
:103EA000F6D801A151F823F0013F0008153F0008A2
:103EB000913E0008913E0008913E0008913E0008A6
:103EC000153F0008913E0008913E0008913E000811
:103ED000913E0008134000083F3F0008CD3F000816
:103EE000913E0008913E000835400008913E0008D0
:103EF0003F3F0008913E0008913E0008D53F000872
:103F000033681A1D1B68326004F1420684F842309F
:103F100001239CE033682068191D3160060601D535
:103F20001D6803E04506FBD5B3F90050002D03DA08
:103F30002D236D4284F8433058480A2311E021684C
:103F40003368080653F8045B02D4490648BFADB293
:103F50006F2F5248336014BF0A230823002184F8CE
:103F600043106668A660002E05DB21682E4321F011
:103F7000040121604BD01646B5FBF3F103FB11574A
:103F8000C75D06F8017D2F46BB420D46F4D9082BCC
:103F90000BD12368DF0708D5236961689942DEBF2A
:103FA000302306F8013C06F1FF36921B2261CDF862
:103FB00000A04B4603AA21464046FFF7E7FE01302A
:103FC0004AD14FF0FF3004B0BDE8F087236843F0DA
:103FD000200323603248782784F8457023683168CD
:103FE0001F0651F8045B02D45F0648BFADB23160D2
:103FF000D90744BF43F0200323601DB11023ADE770
:104000002648E9E7236823F020032360F6E71646F5
:10401000BDE7336825686169181D30602E061B688E
:1040200001D5196002E06806FBD5198000232361E1
:104030001646BCE733681A1D32601E6862680021AC
:104040003046FCF7CDF808B1801B606063682361DF
:10405000002384F84330AAE72369324649464046A4
:10406000D0470130ADD023689B0713D4E068039B91
:104070009842B8BF1846A6E7012332464946404653
:10408000D04701309DD00135E36803995B1AAB42FC
:10409000F2DCEBE7002504F11906F5E7B27F000832
:1040A000C37F00082DE9F04F87B0914603938B68DA
:1040B0005A1EB2F5AE7F81BF6FF4AE7503EB050BF0
:1040C00040F25D138B600B680A464FF0000543F425
:1040D000F06342F81C3BCDE9045580460C4698BF7E
:1040E0004FF0000B01921646AA462F460295A26891
:1040F0005AB1D9F800301B784E2B63D8402B3BD8EF
:10410000A3F12B01C8B20E2839D91FB1236823F4BB
:10411000807323600AF1FF3ABAF1010F00F21481B3
:10412000019B9E4200F20581012007B0BDE8F08F9F
:10413000A3F161020D2AE8D801A151F822F000BFD5
:10414000894200080B4100080B4100080B410008A0
:10415000E5420008BF4200080B4100080B4100087F
:10416000974200080B4100080B4100080B41000872
:104170000B41000853420008A3F14102DAE70E297F
:10418000C3D801A050F821F0434200080B410008B9
:1041900043420008D34200080B410008E5410008F3
:1041A0002942000829420008294200082942000843
:1041B0002942000829420008294200082942000833
:1041C000294200086E2B09D8602BB1D8542B7BD024
:1041D000592B9AD1072D98D108252FE0742B73D035
:1041E000792BF6E72168C8051ED521F080012160F2
:1041F0000137BBF1000F03D001320BF1FF3BA2608E
:10420000A368013BA360236901332361D9F804301B
:10421000013B002BC9F8043040F38280D9F800300C
:104220000133C9F8003062E71AEB05017FF46DAF86
:10423000226822F4C07222600D468A4606F8013BCD
:10424000DEE7226810067FF560AF22F08002226070
:10425000F4E7BAF1000F0CD177B9226802F4E061FB
:10426000B1F5E06F08D122F4F06222604FF0010A4C
:10427000E4E7BAF1020F50D0012D02D0042D7FF4F3
:1042800044AF0135EDB2D9E7BAF1010F7FF43DAF8C
:104290004FF0020AD2E775B9002F7FF437AF2268DA
:1042A00002F4E061B1F5E06F40F0038122F4F062C6
:1042B00022600125C2E7032DE3D0052DDFE7022DA3
:1042C0007FF423AF0325B9E7062D7FF41EAF072542
:1042D000B4E7226891057FF518AF22F420722260BE
:1042E0000297ABE7226802F4A061B1F5806F05D0B8
:1042F00050057FF50AAF002F00F0DB80910558BF15
:10430000029922F4F06258BF791A42F4C07258BF81
:10431000CDE904162260002790E74FF0030A8DE7ED
:10432000D4F8803149464046984700283FF4DFAE34
:10433000EBE6D4F87C3116F8011D4A464046984712
:104340002369013B2361EBE66B1E062B24D8022D6B
:1043500036D8019B9E427FF6E7AED4F87C3116F842
:10436000011D4A46404698472369013B2361F0E717
:10437000D4F87C311BF8011D4A4640469847236912
:10438000013B23610AF1FF3A5FFA8AFABAF1020FA0
:10439000EED1033DEDB2761B2368DA0530D55B051F
:1043A00011D5019B9E427FF6BFAED4F87C3116F842
:1043B000011D4A46404698472369013B2361F0E7C7
:1043C000AA46B346DEE716F8011C2369652903F106
:1043D000FF3306F1FF3523610CD045290AD0D4F80C
:1043E0007C314A4640469847236916F8021C013B37
:1043F000B51E2361D4F87C314A46404698472E4684
:10440000226812F0100201D000208EE6327023687C
:1044100003F4C063B3F5806F25D1029B9F420AD09D
:10442000DA1B04F26F139E4228BF04F5B7762249C7
:10443000304600F03DF901990022404602F028FC88
:10444000039B21681B6811F0020F57EC106B03F1FE
:10445000040215D003990A601B68C3E90067E3688A
:104460000133E360D0E7049B002BE4D005990A23D5
:104470000131404602F08CFC049B059EC21AD0E735
:1044800011F0040F03990A60E6D11D6832463B46DD
:1044900030463946FCF752FB28B1084800F0EEF9E7
:1044A00085ED000ADBE730463946FCF7A5FB2860BE
:1044B000D5E700272EE600BFD47F0008158100084D
:1044C000002310B50446C0E90033C0E9043383601B
:1044D00081814366C2818361194608225C3000F005
:1044E0004CF90D4B63620D4BA3620D4BE3620D4B18
:1044F00023630D4B24629C4206D003F16802944270
:1045000002D0D0339C4205D104F15800BDE81040E0
:1045100000F0B0B910BD00BFF5460008174700080D
:104520004F4700087347000898020020024A0349D9
:10453000034800F069B800BF0C0000204D7100086E
:104540001C00002041680C4B994210B5044601D074
:1045500002F0FCFDA168094B994202D0204602F00E
:10456000F5FDE168064B994204D02046BDE81040B5
:1045700002F0ECBD10BD00BF980200200003002037
:104580006803002010B50B4B0B4C0C4A1A602046F8
:1045900000220421FFF794FF04F1680001220921A1
:1045A000FFF78EFF04F1D0000222BDE81040122177
:1045B000FFF786BFD0030020980200202D45000899
:1045C000014800F058B900BFD9030020014800F0AD
:1045D00053B900BFD903002010B50446FFF7F0FF20
:1045E000236A1BB1BDE81040FFF7F0BF044B236204
:1045F000044B1B68002BF5D1FFF7C4FFF2E700BFA7
:1046000045450008D00300202DE9F84307468846B9
:1046100014460026D4E90195B9F1010905D52468AD
:10462000002CF7D13046BDE8F883AB89012B07D9C0
:10463000B5F90E30013303D029463846C04706434A
:104640006835E9E70CB430B5184B0C1E1D689DB0F9
:1046500008DA8B232B604FF0FF301DB0BDE83040EF
:1046600002B070474FF40273ADF814304FF00003FE
:104670001B9314BF04F1FF332346049307934FF6B3
:10468000FF7302900690ADF81630209A21AB02A974
:104690002846019302F0DAFB431CBCBF8B232B603E
:1046A000002CDAD0029B00221A70D6E718000020F6
:1046B0000EB410B59DB01FAB029006906FF0004194
:1046C0000A48079104910A4953F8042B05910024E4
:1046D00002A9006801931B9402F0B8FB029B1C70B6
:1046E0001DB0BDE8104003B0704700BF18000020A7
:1046F0000802FFFF10B50C46B1F90E1000F06CF87F
:104700000028ABBF636DA3891B1823F48053ACBF93
:104710006365A38110BD2DE9F0411F468B89DB0540
:1047200005460C46164605D5B1F90E1002230022A7
:1047300000F040F8A389B4F90E1023F48053A3814C
:1047400032463B462846BDE8F04100F057B810B568
:104750000C46B1F90E1000F02DF8431CA38915BFCB
:10476000606523F4805343F48053A38118BFA38171
:1047700010BDB1F90E1000F00DB80244034693428B
:1047800000D1704703F8011BF9E7000000487047AB
:104790005801002038B5064D0023044608462B601A
:1047A000FCF7A5FF431C02D12B6803B1236038BD81
:1047B000D403002038B5074D0446084611460022B0
:1047C0002A601A46FCF7BAFF431C02D12B6803B1DA
:1047D000236038BDD403002038B5074D0446084691
:1047E000114600222A601A46FCF748FF431C02D1FA
:1047F0002B6803B1236038BDD403002038B5074DC2
:1048000004460846114600222A601A46FCF753FF68
:10481000431C02D12B6803B1236038BDD4030020B0
:10482000014B1868704700BF1800002070B50D4D8F
:104830000D4C641BA4100026A64209D10B4D0C4C54
:1048400003F074FB641BA4100026A64205D170BDC2
:1048500055F8043B98470136EEE755F8043B984776
:104860000136F2E7D4830008D4830008D48300081B
:10487000D883000870477047704700009FED010A19
:10488000704700BF0000C07F2DE9F74F03690C6936
:10489000A34207467EDB013C01F11408A30000F1AE
:1048A0001405009305EB8403019358F8243055F860
:1048B000242001339A4208EB8409B2FBF3F62ED38D
:1048C0004FF0000AC446AE46D3465CF8043B98B2AB
:1048D00006FB00A0020C1B0C06FB0323DEF80020E5
:1048E00080B292B2121A5A44DEF800004FEA134A1C
:1048F0009BB2C3EB224303EB104392B242EA034262
:10490000E1454EF8042B4FEA234BDED2009BEB58D7
:104910002BB9019B043B9D421A462FD33C6138467C
:1049200001F0C6F9002825DB2946002058F8042BA1
:10493000D1F800C01FFA82FE1FFA8CF3A3EB0E031E
:104940000344120CC2EB234202EB1C429BB243EA2B
:104950000243C14541F8043B4FEA2240E6D255F8F4
:10496000242005EB840322B9043B9D421A460BD355
:104970003C610136304603B0BDE8F08F1268043B5D
:10498000002ACBD1013CC6E71268043B002AEFD1D4
:10499000013CEAE70020EEE72DE9F04FC76997B048
:1049A0008DED040B55EC104B209E079181460C9227
:1049B00011937FB9102000F009FE0246C9F81C00CF
:1049C00020B9A94BEF21A94802F03AFCC0E90177D0
:1049D0000760C760D9F81C30196859B15A684A6035
:1049E000012393408B60484600F0E6FED9F81C3066
:1049F00000221A602B1EB9BF23F000430593002349
:104A00003360059F9A4BBCBF01223260BB4312D179
:104A1000119A42F20F731360C7F31303234300F09C
:104A20005A85219BDFF85CA2002B00F05C850AF11F
:104A3000030300F056BD9DED047B002251EC170BE3
:104A400000238DED0A7BFCF747F8804658B1119A98
:104A500001231360219B13B1219A864B1360DFF869
:104A600028A200F040BD9DED0A0B14AA15A94846E6
:104A700001F03EFAC7F30A560290002E78D00B9B45
:104A8000CDF84880C3F31303DDE90A0143F07F53F7
:104A900043F44013A6F2FF3619460022764BFBF78B
:104AA000FBFB6BA3D3E90023FBF7AEFD6AA3D3E9BD
:104AB0000023FBF7F3FB044630460D46FBF73AFDB7
:104AC00067A3D3E90023FBF79FFD02460B46204670
:104AD0002946FBF7E3FB04460D46FCF745F80022A8
:104AE0000746002320462946FCF700F840B1384627
:104AF000FBF720FD22462B46FBF7EEFF00B9013FF6
:104B0000162F52D85D4B03EBC703D3E90023DDE931
:104B10000A01FBF7EBFF002849D0013F0023109367
:104B2000149B9B1B5A1E45BFC3F101030093002336
:104B30000023069254BF00930693002F39DB069B97
:104B40000D973B44069300230893079B092B63D8DA
:104B5000052BC4BF043B0793079BA3F10203CCBF03
:104B600000240124032B63D8DFE803F05254372BD1
:104B7000DDE914631E4406F23243202BC1BFC3F1AA
:104B800040039F4006F2124324FA03F3D6BFC3F159
:104B9000200347EA030004FA03F0FBF7BBFC012201
:104BA000A1F1F873013E129276E70123B7E7109066
:104BB000B6E7009BDB1B00937B42089300230D9319
:104BC000C3E7012309930C9B07EB030B0BF10103D4
:104BD000012B0393B8BF012306E0012309930C9B2B
:104BE000002B28DD9B460393D9F81C0000210422EA
:104BF00002F114059D4226D94160484600F09CFD13
:104C00008246002842D11E4B024640F2AF11DAE63E
:104C10000023E3E70023D5E7012400230793099449
:104C20004FF0FF3B0022CDF80CB012230C92DBE7D3
:104C300001230993F4E74FF0010BCDF80CB05B466C
:104C4000CDF830B0D0E701315200D1E7AFF30080AA
:104C500061436F63A787D23FB3C8608B288AC63F82
:104C6000FB799F501344D33FE67F0008FD7F000887
:104C70000000F07FB17F00080000F83FB08100081D
:104C800055800008E27F0008B07F0008D9F81C308A
:104C90001860039B0E2B00F2A180002C00F09E8078
:104CA000002F33DD9C4B07F00F0203EBC20393EDA3
:104CB000007BF8058DED0E7B4FEA271416D5974B38
:104CC000DDE90A01D3E90823FBF7C8FDCDE90401BA
:104CD00004F00F040326914D54B9DDE90E23DDE9FC
:104CE0000401FBF7BBFDCDE9040128E00226F2E751
:104CF000E10708D5DDE90E01D5E90023FBF784FCC7
:104D0000CDE90E01013664100835E5E700F0AF800B
:104D10007C42814B814D04F00F0203EBC203D3E9C7
:104D20000023DDE90A01FBF76FFCCDE90401241142
:104D300000230226002C40F08F80002BD3D1109B43
:104D4000DDE90445002B00F09480754B00222046DD
:104D50002946FBF7CBFE002800F08B80039B002B3D
:104D600000F08780BBF1000F34DD20466D4B002240
:104D70002946FBF749FCCDE9040107F1FF3801366C
:104D80005C463046FBF7D6FBDDE90423FBF73CFC31
:104D9000654B0022FBF782FA0546A1F15076002C04
:104DA0006AD1DDE90401614B0022FBF775FA024686
:104DB0000B46CDE904232A463346FBF7B5FE00280F
:104DC00040F09882DDE904012A4606F10043FBF732
:104DD0008DFE38BBDDE90A34CDE90434159B002B88
:104DE000C0F257810E2F00F354814B4B03EBC703E6
:104DF00093ED007B0C9B002B8DED007B80F2E5801A
:104E0000039B002B00F3E1800CD1484B002251ECB6
:104E1000170BFBF7F9FBDDE90423FBF77BFE00280A
:104E200000F06682002425460C9B56466FEA030874
:104E300000272146484600F0BFFC002D00F0BD8051
:104E40002FB1AF4203D03946484600F0B5FC2946A1
:104E5000484600F0B1FCB0E0E20705D5D5E90023F3
:104E6000FBF7D2FB013601236410083562E7022606
:104E700065E7039CB84684E7274B099903EBC40315
:104E800053E902235444002954D029490020FBF758
:104E9000E5FC33462A46FBF7FFF9CDE90E015646FD
:104EA000DDE90401FBF760FE0546FBF743FB024624
:104EB0000B46DDE90401FBF7EFF9303502460B46FE
:104EC000CDE9042306F8015BDDE90E23FBF70EFEB6
:104ED000002872D1DDE9042311490020FBF7DCF939
:104EE000DDE90E23FBF702FE002840F0B480A64265
:104EF0003FF470AFDDE90E010A4B0022FBF784FBA3
:104F0000084BCDE90E010022DDE90401FBF77CFB33
:104F1000CDE90401C4E700BFB08100088881000822
:104F20000000F03F0000244000001C40000014403E
:104F30000000E03F31462846FBF766FBCDE90E0155
:104F400013945646DDE90401FBF70EFE0546FBF718
:104F5000F1FA02460B46DDE90401FBF79DF9303515
:104F600006F8015B02460B46A642CDE904234FF04A
:104F7000000224D1AF4BDDE90E01FBF78FF90246A9
:104F80000B46DDE90401FBF7CFFD002863D1DDE925
:104F90000E23A8490020FBF77FF902460B46DDE906
:104FA0000401FBF7A3FD00283FF414AF139E731E0A
:104FB000139316F8013C302BF8D047463BE09E4B4C
:104FC000FBF722FBCDE90401BCE7DDE904455646C9
:104FD000DDE9002320462946FBF740FCFBF7C4FD32
:104FE0008046FBF7A7FADDE90023FBF70DFB02463D
:104FF0000B462046294608F13004FBF74DF906F828
:10500000014B039DA6EB0A04A54202460B4633D191
:10501000FBF744F9DDE9002304460D46FBF784FD68
:10502000C0B9DDE9002320462946FBF755FD10B144
:1050300018F0010F0ED10299484600F0BDFB002385
:105040003370119B01371F60219B002B00F04B82B6
:105050001E6048E2B84633461E4613F8012D392A31
:1050600006D19A45F8D1302208F101088AF80020CB
:105070001A7801321A70A0E76F4B0022FBF7C4FACE
:105080000022002304460D46FBF726FD00289FD092
:10509000D1E7099A002A00F0EA80079A012A00F372
:1050A000CD80129A002A00F0C18003F23343089C9D
:1050B000009E009A1A440092069A01211A4448461A
:1050C000069200F077FC054666B1069B002B09DDD1
:1050D000B342009AA8BF3346D21A0092069AF61A33
:1050E000D31A0693089B0BB3099B002B00F0C680D4
:1050F000002C00F0C08029462246484600F012FDF0
:10510000029A01460546484600F06AFC029980462C
:10511000484600F051FB089B1B1B089300F0B18030
:10512000089A4146484600F0FDFC0290012148469D
:1051300000F040FC0D9B0446002B00F0D8811A467D
:105140000146484600F0EEFC079B012B044600F3A5
:105150009F80049B002B40F09780059BC3F31303B3
:10516000002B40F09380059B23F000431B0D1B0593
:1051700033B1009B01330093069B01330693012357
:1051800008930D9B002B00F0B881236904EB830387
:10519000186900F0C3FBC0F12000069B184410F012
:1051A0001F0000F08280C0F12003042B73DD009B00
:1051B000C0F11C0003440093069B0344064406937D
:1051C000009B002B05DD02991A46484600F004FDBD
:1051D0000290069B002B05DD21461A46484600F04A
:1051E000FBFC0446109B002B61D00298214600F086
:1051F0005FFD00285BDA002302990A22484600F08E
:10520000FDFA099B029007F1FF38002B00F077812F
:10521000294600230A22484600F0F0FABBF1000FAD
:1052200005466FDC079B022B49DC6BE0149BC3F146
:1052300036033CE70000E03F00002440039B5C1E77
:10524000089BA34209DB1C1B039B002BBFF630AF5E
:10525000009B039A9E1A00232BE7089B0D9A089443
:10526000E31A1A44009E039B0D92002421E7089C38
:10527000009E099D28E7DDF8088051E7089A029909
:1052800050E7CDF8088051E7002379E7049B77E7E2
:105290000023089379E793D0009A1C331A440092B4
:1052A000069A1A441E4406928AE70346F4E7039BD3
:1052B000002BB84620DC9B46079B022B1EDDBBF172
:1052C000000F7FF4B1AD21465B460522484600F051
:1052D00095FA01460446029800F0EAFC00287FF7A0
:1052E000A3AD5646312306F8013B08F101089FE5BE
:1052F000039CB8462546F4E7DDF80CB0099B002B6B
:1053000000F00181002E05DD29463246484600F0B6
:1053100063FC0546089B002B5CD06968484600F09A
:105320000BFA064628B9824B024640F2EF21FFF7FE
:105330004ABB2A690232920005F10C010C3001F0DF
:1053400069FF01223146484600F046FC0AF101039C
:1053500000930AEB0B030893049B03F001032F4611
:1053600006930546009B0298214603F1FF3BFFF799
:105370008BFA03463033039039460298099300F0C4
:1053800097FC2A4604902146484600F0ADFCC268CE
:10539000099B064602BB0146029800F089FC099B66
:1053A0000246314648460C92099300F005FA079BE5
:1053B0000C9A009E42EA0301069B1943099B0DD1FA
:1053C000392B27D0049A002A01DD039B31338BF857
:1053D00000302EE52846B9E70122E2E704990029CA
:1053E00004DB079801430698014320D1002AEEDD33
:1053F000029900930122484600F0EEFB21460290FC
:1054000000F056FC0028009B02DCE0D1DA07DED574
:10541000392BDAD139238BF8003033461E46013B55
:1054200016F8012C392A4ED001321A7001E5002AF3
:1054300003DD392BEED00133C9E7009A089902F851
:10544000013C8A4228D0029900230A22484600F0F3
:10545000D5F9AF4202904FF000034FF00A023946EF
:10546000484607D100F0CAF907460546009B0133BC
:10547000009377E700F0C2F92946074600230A2285
:10548000484600F0BBF90546F0E7BBF1000FCCBF82
:105490005E460126564400270299009301224846A1
:1054A00000F09AFB2146029000F002FC0028B4DCD8
:1054B00002D1009BDB07B0D433461E4613F8012D02
:1054C000302AFAD0B5E49A45A8D1312308F1010871
:1054D0008AF80030ADE4219BDFF858A01BB10AF137
:1054E0000803219A1360504617B0BDE8F08F079B60
:1054F000012B7FF72EAE0D9B089301204DE6BBF1EB
:10550000000F7FF7D9AE564602982146FFF7BCF947
:1055100000F1300306F8013BA6EB0A029345B4DD27
:10552000029900230A22484600F068F90290EBE74E
:1055300055800008D97F000838B50546002941D0BC
:1055400051F8043C0C1F002BB8BFE41800F0E8F839
:105550001D4A136833B9636014602846BDE83840BB
:1055600000F0E4B8A34208D9206821188B4201BF9B
:1055700019685B6809182160EDE71A465B680BB192
:10558000A342FAD911685018A0420BD120680144F7
:10559000501883421160E0D118685B68536008447A
:1055A0001060DAE702D90C232B60D6E720682118B7
:1055B0008B4204BF19685B68636004BF09182160EF
:1055C0005460CAE738BD00BFE0030020024B01462B
:1055D000186800F025B800BF1800002070B50F4E05
:1055E0000C463168054611B901F004FE30602146D1
:1055F000284601F0FFFD431C03D14FF0FF34204645
:1056000070BDC41C24F00304A042F8D0211A28461F
:1056100001F0F0FD0130F2D1EFE700BFDC03002024
:105620002DE9F843CD1C25F0030508350C2D38BFB6
:105630000C25002D064601DBA94204D90C2333605A
:105640000020BDE8F883DFF8D48000F069F8D8F8CE
:1056500000301C4644BB29463046FFF7BFFF431CC1
:10566000044658D1D8F800402746002F43D1002CDB
:105670004BD023683946304604EB030901F0BAFDEC
:10568000814542D121686D1A29463046FFF7A6FFB1
:1056900001303AD023682B442360D8F800305A6890
:1056A00062BBC8F800700FE02268521B20D40B2A9E
:1056B00017D96119A342256018BF5960636808BFF4
:1056C000C8F8001062514B60304600F02FF804F12A
:1056D0000B00231D20F00700C21A1CBF1B1AA35089
:1056E000AFE76268A3420CBFC8F800205A60EBE73E
:1056F00023466468AEE73C467F68B6E71A465B68B7
:10570000A342FBD100235360DEE70C233360304615
:1057100000F00CF894E70560D6E700BFE003002036
:105720000148FFF7A8B800BFD80300200148FFF7E1
:10573000A3B800BFD803002070B5C66904460D4663
:1057400076B91020FFF742FF0246E06120B9184BFE
:1057500018486B2101F074FDC0E901660660C6605F
:10576000E669F36883B1E369DB6853F82500B8B9EB
:10577000012101FA05F6721D9200204601F07EFD1E
:1057800060B1C0E901560EE021220421204601F05B
:1057900075FDE369F060DB68002BE4D1002070BD8B
:1057A000026843F825200023C0E90333F7E700BF70
:1057B000E67F00086680000870B5C66905460C469D
:1057C00076B91020FFF702FF0246E86120B9094BC5
:1057D00009488F2101F034FDC0E901660660C6600A
:1057E0003CB1EB696268DB6853F82210216043F832
:1057F000224070BDE67F0008668000082DE9F04178
:105800000D6907460C461E4601F1140C0020DCF819
:10581000003099B202FB01611E0C0B0C02FB063337
:1058200089B2013001EB034185424CF8041B4FEA79
:105830001346ECDC0EB3A368AB4219DC6168384652
:105840000131FFF779FF804628B902460C4B0D481D
:10585000BA2101F0F5FC2269023204F10C01920038
:105860000C3001F0D7FC21463846FFF7A5FF44462F
:1058700004EB850301355E6125612046BDE8F081BA
:1058800055800008668000082DE9F8430C4615464F
:105890001F4609220833064693FBF2F3002101223A
:1058A0009A4209DB3046FFF747FF40B90246194BE1
:1058B0001948D32101F0C4FC52000131F0E7089BE4
:1058C0004361092D4FF00103036116DD04F109095D
:1058D000C8462C4418F8013B0146303B0A223046AA
:1058E000FFF78CFFA045F5D1A5F108044C442D1B12
:1058F0006319BB4204DBBDE8F8830A340925F6E7E7
:1059000014F8013B0146303B0A223046FFF776FF90
:10591000EEE700BF5580000866800008B0F5803FC4
:10592000034636BF030400201020B3F1807F3CBF44
:105930001B020830B3F1805F3CBF1B010430B3F1A0
:10594000804F3CBF9B000230002B05DB13F0804FE3
:1059500000F1010008BF202070470368024613F0E1
:1059600007000BD0D90721D4980749BF5B089B08D3
:10597000012013605CBF13600220704799B209B91F
:105980001B0C1020D9B209B908301B0A190704BF33
:105990001B090430990704BF9B080230D90703D4C0
:1059A0005B0800F1010003D01360704700207047CE
:1059B0002020704710B50C460121FFF7BDFE0246BE
:1059C00028B9054B054840F2451101F039FC012387
:1059D0004461036110BD00BF558000086680000867
:1059E0002DE9F04F17460A693B699A42A8BF3B462A
:1059F0008946A4BF0F4699463D69D9F810A0BB68F7
:105A0000796805EB0A06B34285B0B8BF0131FFF7EC
:105A100093FE30B90246414B41484FF4B17101F059
:105A20000FFC00F1140404EB860E2346002273459C
:105A300020D307F1140809F1140108EB850501EBE7
:105A40008A030293EB1B153B23F003030433153742
:105A5000BD4238BF04230193029B03918B420CD8B3
:105A6000002E03DD5EF8043D002B55D0066105B025
:105A7000BDE8F08F43F8042BD9E7B1F800A0BAF1E4
:105A8000000F1FD0C446A14600275CF8042BD9F8AC
:105A900000301FFA82FB9BB20AFB0B333B44D9F860
:105AA0000070120C3F0C0AFB027202EB13429BB215
:105AB00043EA0243654549F8043B4FEA1247E4D8FC
:105AC000019BE750039BB3F802900431B9F1000F3A
:105AD00020D023684746A4464FF0000AB7F800B02C
